:100000000C9434000C9451000C9451000C94510049
:100010000C9451000C9451000C9451000C9451001C
:100020000C9451000C9451000C9451000C9451000C
:100030000C9451000C9451000C9451000C945100FC
:100040000C9451000C9451000C9451000C945100EC
:100050000C9451000C9451000C9451000C945100DC
:100060000C9451000C94510011241FBECFEFD8E026
:10007000DEBFCDBF15E0A0E0B1E0EEECF1E202C0E2
:1000800005900D92A432B107D9F725E0A4E2B5E0BE
:1000900001C01D92A532B207E1F70E948C0B0C94AF
:1000A000E5100C9400002F923F924F925F926F9256
:1000B0007F928F929F92AF92BF92CF92DF92EF92F8
:1000C000FF920F931F93CF93DF93CDB7DEB7CD5839
:1000D000D0400FB6F894DEBF0FBECDBFDB018983E1
:1000E0009A83FD018081918122813381C480D580F2
:1000F0000681178160857185E284F384EEAAFFAAE8
:100100000FB6E696EEAEFFAEE6970FBE68AF79AFDC
:100110000FB6E4966EAF7FAFE4970FBE0FB6E296D0
:100120000EAF1FAFE2970FBE0FB6E096CEAEDFAEBA
:10013000E0970FBEE0E0F0E00FB6AA96EEAFFFAF9B
:10014000AA970FBE6AE070E00FB6A8966EAF7FAFB9
:10015000A8970FBE0FB6A496EEAFFFAFA4970FBE41
:100160000FB6A2966EAF7FAFA2970FBE0FB6AE9638
:10017000AEAFBFAFAE970FBE0FB6AC96EEAFFFAF50
:10018000AC970FBE61E070E00FB6A6966EAF7FAF82
:10019000A6970FBEB6010FB6A0962EAF3FAFA097A1
:1001A0000FBE0FB66E96EEAFFFAF6E970FBE0FB6D7
:1001B0006C962EAF3FAF6C970FBE0FB66A968EAFA0
:1001C0009FAF6A970FBE0FB668962EAF3FAF689786
:1001D0000FBE0FB66696EEAFFFAF66970FBECA01B1
:1001E0008B5F9D4F89A39AA3CA018C5F9D4F8F8F10
:1001F00098A3CA018D5F9D4F8D8F9E8FCA018E5F20
:100200009D4F8B8F9C8FCA0102968F839887495F81
:100210005D4F4EA75FA7CD010E968B8B9C8B1C96D6
:10022000AD8BBE8BCE018A589F4FFC017496EF8B2D
:10023000F88F4096898F9A8FCE018C5A9F4FFC0180
:100240007E96ECA7FDA7FC017A96EEA3FFA3FC0126
:100250007896E8A7F9A7FC017796EAA7FBA7FC0127
:100260007696EB83FC83FC017296E98BFA8BFC019A
:100270007096EB87FC87FC013A96EF87F88BFC01C0
:100280003896EBA3FCA3FC013696E987FA87FC01BC
:100290003496ED87FE8702968D839E83812D803074
:1002A00080E090E0AC0109F053C1EF85F88920802F
:1002B0003180EBA1FCA1C080D180ED85FE8540801E
:1002C00051802C143D040FB664966EAF7FAF6497D7
:1002D0000FBE08F4FDC0E985FA85E080F180E214E4
:1002E000F30408F4F5C0B1016C197D095201AC0C9E
:1002F000BD1C0FB660964EAE5FAE60970FBEEB852D
:10030000FC8540815181DA0189899A89A80FB91F3A
:1003100011979C906430710590F46030710509F478
:10032000D3C0A0E0B0E0F501EA0FFB1F8081891582
:1003300009F486C01196A617B707A8F3C5C0C50172
:1003400001968E7F8A159B05E9F08A199B0986170D
:10035000970708F0CB0180309105A1F0A0E0B0E054
:10036000F501EA0FFB1F2081291509F469C01196D8
:10037000A817B907A8F3FB0134973F01E817F9075D
:1003800030F447C0CB0104973C0180E090E00FB609
:100390006296EEAEFFAE62970FBE7201E92DFF27A7
:1003A0002F2F290D322F22272E2B3F2BF501E80F5F
:1003B000F91F42805380DF0142265326F201E150AB
:1003C000F140409450944E225F22FD01A081B18102
:1003D000A227B327FD01E150F140A095B095AE23CF
:1003E000BF23A429B529A078B078A030B10531F495
:1003F0000496F301E817F90708F0D8CF68177907D2
:1004000008F455C527010FB66296EEACFFAC6297B3
:100410000FBE6817790709F457C0681B790BA80E3F
:10042000B91EA0E0B0E0F501EA0FFB1F20812915FD
:1004300029F01196A617B707B0F346C0A80FB91F49
:10044000AC0DBD1D1196EBA1FCA1A083B183A41737
:10045000B50708F42BC09D01241B350BEA16FB06DB
:1004600080E090E018F0C201820F931FEA16FB06AD
:10047000E8F079014530510508F016C569897A8997
:100480000E94C810EBA1FCA1A081B1818030910530
:1004900009F4C2C4EF85F88920803180E985FA85A6
:1004A000E080F180ED85FE85408051802A163B0674
:1004B00078F0B1016A1B7B0B5201AA0EBB1EE2143D
:1004C000F3046D0128F01BCFEBA1FCA12082318247
:1004D000AAA5BBA58C91803080E090E0AC010FB65E
:1004E00064966EAD7FAD64970FBE09F031C0ED81AB
:1004F000FE8180819181FC01AB81BC812C910FB682
:1005000066968EAD9FAD66970FBE203031F4E8172A
:10051000F90720E030E0A901D9F0AAA5BBA521E0A8
:100520002C93E81BF90B480E591EE030F10561F0E1
:10053000AF013197D201AE0FBF1F8C919F018D305B
:1005400009F09A01A20104C0A20180E090E09C01A0
:100550004030510509F47EC44A01E8A5F9A5A08000
:10056000B180F5018785803009F46FC0F5018130D5
:1005700009F07DC064857585CE018A589F4FA4011E
:1005800029010E94C807EF89F88D208131814281BD
:100590005381CA01892F82958F70992786958695F8
:1005A0008695820F931F20E030E0B901461F571F48
:1005B000969587959A01322F3295307F2227330FF7
:1005C000330F330F282B392B55954795ECA5FDA5F7
:1005D000E080F180C280D380C701821B930B88AF7B
:1005E00099AFC601840B950B8EAB9FABE98DFA8D4D
:1005F00040815181828193814150504080409040A0
:100600009C01232F22952F7033272695269526951A
:10061000240F351F861F971F36952795AC01542F41
:100620005295507F4427550F550F550F422B532B92
:1006300095958795EEA1FFA160817181028113815B
:10064000641B750B080B190B4DC02901ECA5FDA50A
:10065000C280D380E080F180EEA1FFA102811381EE
:1006600060817181E8AEF9AECEAADFAA3BC0648595
:100670007585CE018A589F4FA40129010E94C807A1
:10068000EF89F88D808191819F01ECA5FDA5E08027
:10069000F180AF01F90122813381FA01C280D38058
:1006A000A701481B590B48AF59AFC601820B930BEA
:1006B0008EAB9FABE98DFA8D808191819F01EEA178
:1006C000FFA160817181AF01F90122813381FA01BB
:1006D00002811381681B790B020B130B6F5F7F4F35
:1006E0000F4F1F4F3B01F5014489558922893389FA
:1006F0008189803091F0F50184859585FC016281C6
:100700007381848195810E94631024E630E040E08B
:1007100050E05A010E94871003C080E090E05C0125
:10072000D20181E0203031054A055B0591E009F0F6
:10073000912D9170903060E070E011F46FEF7FEFD9
:10074000E52FEE230AF0812D8170803009F4B90184
:10075000903020E030E811F42FEF3FE7803009F4CB
:100760009A016E0D7F1D2C1D3D1DECA5FDA522835C
:10077000338360837183A030B10509F43BC3C401A6
:100780008A0F9B1F0FB626968EAF9FAF26970FBE80
:10079000AB89BC898C918DA3ED89FE898081918183
:1007A000F401DC011C96ACABBDAB0FB624968EAF4A
:1007B0009FAF24970FBE0A968AAB9BABB3010FB6CF
:1007C0002C960EAF1FAF2C970FBE0FB62A966EAFAA
:1007D0007FAF2A970FBEDF016D91862F88232AF005
:1007E000462F552700E010E060C08C918F73992749
:1007F000262F2F71422F5527DF011296603E00E011
:1008000010E008F446C07C917F73DF01E72FFF27DB
:1008100092958295907F9827807F9827880F991FBF
:10082000880F991F8E2B9F2BFD011396603F08F4B4
:10083000D1C2220F220F2C713070BC01672F772795
:1008400066956695622B732B2C912F7333279295A7
:100850008295907F9827807F9827880F991F880F0F
:10086000991F822B932B21E08030910541E150E0CC
:100870006407750709F0212D2170203009F0BFC2EF
:1008800034960FB62896EEAFFFAF28970FBEAC0197
:1008900013C052954295507F5427407F5427440FF0
:1008A000551F440F551F482B592BB8010FB62896DA
:1008B000AEAFBFAF28970FBE0FB624968EAD9FADDB
:1008C00024970FBE0E9404100FB62E968EAF9FAFD6
:1008D0002E970FBEFC0142895389A089B18981E01E
:1008E000A030B1054007510709F0812D817080309B
:1008F00009F046C20FB62E96EEADFFAD2E970FBE95
:10090000268537858485958561E080309105E0E016
:10091000F0E02E073F0709F4612D6170603009F4A3
:100920002FC24F3F6FE75607BA0110F06FEF7FE716
:100930004F3FEFE75E07FD0110F0EFEFFFEF4F3F96
:100940001FE7510709F0DF010FB62E96EEADFFADA0
:100950002E970FBE008511858284938448AD59ADD2
:10096000040F151F4EA95FA9841E951EA00FB11F6D
:100970007401E61EF71EA4014E255F256825792522
:10098000609570956423752341E0772351E00AF068
:10099000512DB701770F770B672F5030FB0109F40A
:1009A000FD0150300FB62296EEAFFFAF22970FBE7B
:1009B00011F4B7010AC0E0E0F0E86E277F270FB618
:1009C0002296EEADFFAD22970FBE0E171F078606CB
:1009D000970651E00CF4512D2F3FEFE73E077901C8
:1009E00018F0EFEFFFE77F012F3FEFE73E07DC0155
:1009F00010F0AFEFBFEF2F3FEFE73E0709F0CD015B
:100A00000FB62E96AEADBFAD2E970FBEFD01208D59
:100A1000318DECA9FDA9C080D180CCAEDDAEEAA9B4
:100A2000FBA9C080D180CAAEDBAEFD01A481B58137
:100A3000C680D7800FB62A96EEADFFAD2A970FBEBF
:100A4000AE0FBF1F0FB62C96EEADFFAD2C970FBEAD
:100A5000CE1EDF1E0FB66296AEAFBFAF62970FBE5F
:100A60008A0F9B1FD601AE1DBF1DF6010FB66496FF
:100A7000AEAFBFAF64970FBEEA27FB270FB66096F5
:100A8000CEAEDFAE60970FBEEC24FD24E094F09470
:100A9000EE22FF22FF200AF0412D0FB66496AEAC85
:100AA000BFAC64970FBEBB0CBB08AB2C403059F0F9
:100AB000D501E0E0F0E8AE27BF270FB66496AEAFF1
:100AC000BFAF64970FBE5170403009F45C015030E5
:100AD00009F056C1D9011197CD0196958795969544
:100AE0008795969587954CAD5DAD84179507C9019F
:100AF00008F0CD012030310520E030E009F09C0104
:100B00002EAF3FAFAEA5BFA58C9192E08927A82F4D
:100B1000BB27FD01ED5EFA4F808189ABA15FBA4F23
:100B20008C9188AB0FB662962EAC3FAC62970FBE2D
:100B30000FB660968EAD9FAD60970FBE0FB6229632
:100B4000EEADFFAD22970FBE7C013801640181E05C
:100B50002A143B040FB664962EAD3FAD64970FBECA
:100B6000E206F3060CF0812D8170803009F03AC066
:100B7000D50181E06E167F06C606D70691E00CF01F
:100B8000912D917093012F5F3F4FA6014F4F5F4F03
:100B90009030590109F4530190302A0109F42601DB
:100BA000AE16BF06460657060CF0812D903009F4AC
:100BB000A4018170903009F49801803089014A01C4
:100BC0000FB662962EAC3FAC62970FBE0FB6609622
:100BD000EEACFFAC60970FBE350162015D0109F01C
:100BE000B6CFCEC0A1014F5F5F4FC7018F4F9F4F60
:100BF000AEADBFADB695A795B695A795B695A79599
:100C00002CAD3DADA217B30708F0BAC02AAD3BAD7D
:100C1000A20FB31F2C91AEADBFAD3A2F30953770F8
:100C20003A9512F02695FCCF2A012170203009F464
:100C300098C021E03F2D33230AF0212D2170203070
:100C400009F08FC021E03D2D33230AF0212D2170C2
:100C5000203009F086C029A9422F552721E024160B
:100C6000350640E050E0E406F5060CF4212D217035
:100C7000203009F076C028A9422F552721E06416BC
:100C8000750640E050E0C406D5060CF4212D217015
:100C9000203009F066C0AEA5BFA52C91223034F4F7
:100CA000203031F0322DA101730105C02230D1F77F
:100CB000362DA3017101AEADBFAD52954295507F67
:100CC0005427407F542740784E0D5F1D403022E06E
:100CD0007A01520708F045C0AB8DBC8D2C912215CE
:100CE00008F0222DAB8DBC8D2C93AD8DBE8D2C913B
:100CF000221608F0222DAD8DBE8D2C93AF8DB8A19C
:100D00002C91261508F0262DAF8DB8A12C93A9A102
:100D1000BAA12C91621608F0262DA9A1BAA12C9394
:100D200037704EEF232FCEACDFAC2A951AF0440F6C
:100D3000411DFBCFEF81F885D701AE0FBF1F7D01AD
:100D40002C9124234DA10FB62296EEADFFAD229734
:100D50000FBE3A9512F0440FFCCF242BD7012C93F1
:100D6000D6011196AEAFBFAF21E00E171F07860662
:100D700097060CF0212D21702030120109F0E4CEED
:100D80000FB62E96EEADFFAD2E970FBE6489758916
:100D9000068917890FB62A968EAD9FAD2A970FBE8A
:100DA000680F791F0FB62C968EAD9FAD2C970FBE96
:100DB000081F191F0FB62896EEADFFAD28970FBE7E
:100DC0000FB626968EAD9FAD26970FBEE817F90792
:100DD00091F0F5CC9A01322F3295307F2227822B69
:100DE000932B529542954F7045275F704527BA0166
:100DF000AC015CCDB301AAA5BBA58C9150CA0FB6BE
:100E00002A966EAD7FAD2A970FBE0FB62C960EAD0B
:100E10001FAD2C970FBEEFCF0FB666968EAD9FAD70
:100E200066970FBE0FB66696AEAFBFAF66970FBEA2
:100E3000F701E81BF90B0FB660964EAC5FAC6097FC
:100E40000FBE480E591E0FB664966EAD7FAD649707
:100E50000FBE6BCBA981BA81FD0188AD99AD8583A9
:100E60009683618372831C928EA99FA98783908742
:100E700003831483C357DF4F0FB6F894DEBF0FBE52
:100E8000CDBFDF91CF911F910F91FF90EF90DF9039
:100E9000CF90BF90AF909F908F907F906F905F901A
:100EA0004F903F902F90089564E070E0CA010E9437
:100EB000F80F0E94C310DB0194EA9093BC0090915C
:100EC000BC009923E2F79091B90096959695969576
:100ED000292F2A95223040F0903009F450C09730E5
:100EE00009F44FC084E00895880F8093BB0084E824
:100EF0008093BC008091BC008823E2F79091B900F8
:100F000096959695969584E0973044F4903009F440
:100F100036C0933081F0943049F0E5CF973009F432
:100F200030C0983041F0993009F0DDCF84E98093EA
:100F3000BC0081E008954A0F5B1F84E8A417B50741
:100F400009F421C09C919093BB008093BC009091C8
:100F5000BC009923E2F711969091B9009695969569
:100F60009695953059F3903051F0973051F0963076
:100F700009F0B8CF84E98093BC0082E0089583E053
:100F80000895812D089584E98093BC0085E008953B
:100F90002F923F924F925F926F927F928F929F9289
:100FA000AF92BF92CF92DF92EF92FF920F931F9377
:100FB000CF93DF93CDB7DEB722970FB6F894DEBF9D
:100FC0000FBECDBF89017A016B0189839A8380E0CE
:100FD00090E00030110509F48CC00E0D1F1D80E05B
:100FE00090E03C011C012C0152014301D7016D919D
:100FF000862F88231AF0462F552759C08C918F735E
:101000009927262F2F71422F5527D7011296603E20
:1010100008F441C07C917F73E72FFF27929582955A
:10102000907F9827807F9827880F991F880F991F96
:101030008E2B9F2BF701DF011396603F08F449C008
:10104000220F220F2C713070BC01672F7727669515
:101050006695622B732B2C912F7333279295829573
:10106000907F9827807F9827880F991F880F991F56
:10107000822B932B21E08030910541E150E0640701
:10108000750709F0212D2170203009F061C03496D8
:10109000AC017F010EC052954295507F5427407F8E
:1010A0005427440F551F440F551F482B592BB1018E
:1010B0007D01C6010E940410FC0164887588468881
:1010C0005788680C791C4A1C5B1CE016F10699F0E5
:1010D0008BCF9A01322F3295307F2227822B932B90
:1010E000529542954F7045275F704527BA01AC0174
:1010F000DFCF3C012C0140E150E009811A81C80199
:10110000612D0E94DE10F80180E090E01C01268A2B
:10111000378A248A358A428A538A608A718A22965B
:101120000FB6F894DEBF0FBECDBFDF91CF911F91F8
:101130000F91FF90EF90DF90CF90BF90AF909F9076
:101140008F907F906F905F904F903F902F90089579
:1011500034012501D0CFDF92FF921F93CF93DF930D
:10116000CDB7DEB72A970FB6F894DEBF0FBECDBF5E
:10117000122FD62EF82E4A838FE08983902F9A95CE
:10118000812D21E0091708F0282F203009F4892F3C
:101190008B83CE0101966F2D0E940D0A873009F0D6
:1011A00023C08D2D823011F487E01EC0103408F06A
:1011B00027C09E2D9A95812D21E0E91608F0282F51
:1011C000203009F4892F8034D8F490E19E838695ED
:1011D0008695869588871695169516951F83CE0158
:1011E00006966F2D0E940D0A2A960FB6F894DEBF60
:1011F0000FBECDBFDF91CF911F91FF90DF9008957B
:1012000087E195E06DE070E00E94F40F0E94C3104A
:101210002F923F924F925F926F927F928F929F9206
:10122000AF92BF92CF92DF92EF92FF920F931F93F4
:10123000CF93DF93CDB7DEB76D970FB6F894DEBFCF
:101240000FBECDBFC8869E2DC02E89012A016D8399
:10125000D82E20E032E0983008F43BC04901F92E46
:10126000892F869586958695E82FFF27319740E050
:1012700050E0CA01BF0198010E94631021E0803054
:10128000910509F4212D217087E0203009F09DC0DF
:1012900092E06030790708F098C09B01200F311F61
:1012A00020303907C901F40108F0CF0141E02617C9
:1012B000370708F0412D403009F4FC01E617F70725
:1012C00008F4A8C020E032E02E1B3F0B4E0E5F1E3C
:1012D0009F2DA91AA694A694A694A394EA2DFF275D
:1012E0008885482F55278C2D99274E835F838B83C4
:1012F0009C83481B590BCE010E967C0109831A83EF
:101300002030310509F460C020173107190108F0B9
:10131000180188858C1508F471C08E819F8128166C
:10132000390608F470C031974030510509F436C0D1
:10133000EB87FC8729873A87C701612D4A0140E185
:1013400050E00E94DE10A4018D818D8752018B81B7
:101350009C81A80EB91E8A010030110509F421C034
:1013600000311105A80110F040E150E0C701B501BE
:101370003A010E94D510C301081B190BA80EB91E13
:101380000196AC01BE01635F7F4F8D2D0E945B070C
:101390008530A40109F381E091E005C098E087E081
:1013A00008C098E087E029853A85EB85FC850981AE
:1013B0001A81E030F10509F0892F22193309420C16
:1013C000531C883011F49CCF87E06D960FB6F894CB
:1013D000DEBF0FBECDBFDF91CF911F910F91FF9068
:1013E000EF90DF90CF90BF90AF909F908F907F90C5
:1013F0006F905F904F903F902F9008958B819C81CC
:101400006E817F8103C08E819F81B1010E94F80FA0
:101410000E94C310CB01BF01F9CFCF92DF92EF92B0
:10142000FF921F93CF93DF93CDB7DEB72F970FB601
:10143000F894DEBF0FBECDBF162FDC018C91833038
:1014400018F4E5E0F0E003C0E82FFF273397ED3014
:10145000F105A4F0E431F1050CF025C0E031F1050F
:101460000CF445C0E231F1050CF083C0E031F10528
:1014700009F0A1C0FD018181806AEBC0E630F10571
:101480000CF425C0E930F1050CF43DC0EB30F1055A
:101490000CF07AC0E930F10509F093C0FD018181BB
:1014A0008F708061D6C0E731F1050CF43BC0E931A3
:1014B000F1050CF073C0E731F10509F08CC0FD01B6
:1014C00091819295907F42E050E08BEDC5C0E33072
:1014D000F1050CF03AC0E030F10509F480C0E130CC
:1014E000F10509F082C0FD018181846AB2C0ED304E
:1014F000F10509F47EC0EE30F10509F081C0FD016F
:101500008181806BA6C0E630F10509F47EC0E7302A
:10151000F10509F07EC0FD012281918143E050E098
:1015200083EA9BC0E431F10509F477C0E531F105A8
:1015300009F081C0FD0182818F7091819295907F29
:10154000982B42E050E085ED87C0E330F10509F4C7
:101550007DC0E430F10509F0BBC0FD013481738129
:1015600022818181866247E050E06FEF912DA12DAD
:1015700078C0E231F10509F0B5C0FD018181880F25
:10158000880F880F806C65C0EB30F10509F0B0C0A2
:10159000FD01918142E050E080E25EC0E931F10559
:1015A00009F0ADC0FD019181990F990F906142E062
:1015B00050E08DE851C0FD01918142E050E088EAA1
:1015C0004BC0FD019181892F8F7092959F70906122
:1015D00042E050E041C041E050E083EE3CC0FD01FC
:1015E000918142E050E081E837C0FD018181866A47
:1015F00030C0FD012281918143E050E082E22DC0A4
:10160000FD0181818F73806424C0FD0181818E6220
:1016100020C0FD0181818F701CC0FD0181818295F8
:10162000807F92819295907F990F982B926042E0F3
:1016300050E08AED11C0FD0181818F7092819295F9
:10164000907F982B42E050E089ED06C0FD0181813A
:101650008E6A41E050E0912D212D312D712DA12D6B
:10166000612D6F83AE837D833C832B839A83898333
:1016700080E090E08E879F878C879D878A879B87F5
:10168000888799879E01285F3F4FC901790101969C
:10169000BE016F5F7F4F6A010E94D510F60131963F
:1016A000812FB701AF010E945B07982F87E095302B
:1016B00009F081E02F960FB6F894DEBF0FBECDBFC4
:1016C000DF91CF911F91FF90EF90DF90CF90089521
:1016D0008862FD01A48133817281218146E050E05E
:1016E000912DBECFFD01918142E050E083EDB4CF5A
:1016F000FD012281918143E050E081E2AECFFD0106
:1017000081818295807F92819295907F990F982B0D
:1017100042E050E08DEAA0CF0E94900B0E94C310DF
:101720002F923F924F925F926F927F928F929F92F1
:10173000AF92BF92CF92DF92EF92FF920F931F93DF
:10174000CF93DF93CDB7DEB7C851D3400FB6F8942F
:10175000DEBF0FBECDBF9FB7F894809124058030C7
:1017600019F421E02093240599230AF47894803019
:1017700009F02AC45998519A80E190E09093C500ED
:101780008093C40082E08093C00088E18093C10010
:1017900086E08093C200A0E9B4E088EE94E02C914A
:1017A0003091C00030723030D9F32093C6001196CA
:1017B000A817B907A1F7A8EEB4E08BEF94E02C913D
:1017C0003091C00030723030D9F32093C6001196AA
:1017D000A817B907A1F781E091E00FB6CB54DF4F0E
:1017E0008EAF9FAFC55BD0400FBE0FB6CD54DF4F5D
:1017F0008EAF9FAFC35BD0400FBE84E30FB6C9541A
:10180000DF4F8EAFC75BD0400FBE00E014E084E036
:1018100090E02AE030E0AE014F505F4F3C01FC0108
:10182000C8015901B5016A014F010E9473107B0183
:10183000C701B5010E9473109501F401A60131970B
:10184000DA01AE0FBF1F80638C9304361105870148
:1018500038F761E070E0CB01DA01A80FB91F2C91D5
:101860003091C00030723030D9F32093C600019619
:101870008530910589F7ABEFB4E08DEF94E02C91C2
:101880003091C00030723030D9F32093C6001196E9
:10189000A817B907A1F77B018E010B5F1F4F4EED13
:1018A00050E0C801612D4A010E94DE1040E050E086
:1018B00081E09A019FB392709030E1F732BD21BD73
:1018C0008FBBD801A20FB31F90B59C93F90131963D
:1018D0002D3D31059F0170F30FB6C755DF4F4EAF59
:1018E0005FAFC95AD0400FBE8CE090E00FB6C9552B
:1018F000DF4F8EAF9FAFC75AD0400FBE0FB6CF5449
:10190000DF4F8EAE9FAEC15BD0400FBE0FB6C1554C
:10191000DF4F0EAF1FAFCF5AD0400FBE8FE190E028
:101920000FB6C355DF4F8EAF9FAFCD5AD0400FBE1D
:101930008BE291E00FB6C555DF4F8EAF9FAFCB5A0C
:10194000D0400FBE8A010FB6CB55DF4F4EAF5FAF11
:10195000C55AD0400FBE3C98449A3D98459A88E9B4
:101960008093B8001092B90082E090E00FB6C7549F
:10197000DD4F8EAF9FAFC95BD2400FBE8CE390E4CA
:101980000FB6CD54DF4F8EAF9FAFC35BD0400FBEBD
:10199000C601029641E052E08B839C83612D0E9438
:1019A000DE108FE10FB6C854DD4F8EAFC85BD2405A
:1019B0000FBE8FE790E00FB6CA54DD4F8EAF9FAFDA
:1019C000C65BD2400FBE86E090E00FB6CC53DD4F31
:1019D0008EAF9FAFC45CD2400FBECE018E5F9C4FD6
:1019E0006CE30E940D0A873009F0E4C20FB6CA53B7
:1019F000DD4F1EAEC65CD2400FBE88E198E00FB648
:101A0000CC53DD4F8EAF9FAFC45CD2400FBECE0132
:101A10008E5F9C4F6CE30E940D0A873009F0CAC2AA
:101A200084E19FE10FB6CC53DD4F8EAF9FAFC45C16
:101A3000D2400FBECE018E5F9C4F6CE30E940D0A18
:101A4000873009F0B7C286E190E00FB6CC53DD4F86
:101A50008EAF9FAFC45CD2400FBECE018E5F9C4F55
:101A60006CE30E940D0A873009F0A4C282E190E085
:101A70000FB6CC53DD4F8EAF9FAFC45CD2400FBECC
:101A8000CE018E5F9C4F6CE30E940D0A873009F0F7
:101A900091C28CE191E00FB6CC53DD4F8EAF9FAF7A
:101AA000C45CD2400FBECE018E5F9C4F6CE30E949F
:101AB0000D0A873009F07EC28EE090E00FB6CC535D
:101AC000DD4F8EAF9FAFC45CD2400FBECE018E5FA4
:101AD0009C4F6CE30E940D0A873009F06BC20FB671
:101AE000CA53DD4F1EAEC65CD2400FBE87E190E008
:101AF0000FB6CC53DD4F8EAF9FAFC45CD2400FBE4C
:101B0000CE018E5F9C4F6CE30E940D0A873009F076
:101B100051C2C601DC01A95FBD4FA983BA831C92E3
:101B200083E191E00FB6CC53DD4F8EAF9FAFC45C25
:101B3000D2400FBECE018E5F9C4F6CE30E940D0A17
:101B4000873009F037C285E191E00FB6CC53DD4F05
:101B50008EAF9FAFC45CD2400FBECE018E5F9C4F54
:101B60006CE30E940D0A873009F024C282E00FB6B0
:101B7000CA53DD4F8EAFC65CD2400FBE89E191E003
:101B80000FB6CC53DD4F8EAF9FAFC45CD2400FBEBB
:101B9000CE018E5F9C4F6CE30E940D0A873009F0E6
:101BA00009C283E09FE50FB6CC53DD4F8EAF9FAFE8
:101BB000C45CD2400FBECE018E5F9C4F6CE30E948E
:101BC0000D0A873009F0F6C18AE194E00FB6CC53D4
:101BD000DD4F8EAF9FAFC45CD2400FBECE018E5F93
:101BE0009C4F6CE30E940D0A873009F0E3C10FB6E9
:101BF000CC53DD4F6EAE7FAEC45CD2400FBECE0183
:101C00008E5F9C4F6CE30E940D0A873009F0D2C1B1
:101C100085E090E00FB6CC53DD4F8EAF9FAFC45C34
:101C2000D2400FBECE018E5F9C4F6CE30E940D0A26
:101C3000873009F0BFC189E090E00FB6CC53DD4F8B
:101C40008EAF9FAFC45CD2400FBECE018E5F9C4F63
:101C50006CE30E940D0A873009F0ACC186E091E088
:101C60000FB6CC53DD4F8EAF9FAFC45CD2400FBEDA
:101C7000CE018E5F9C4F6CE30E940D0A873009F005
:101C800099C1C601DC01AA5FBD4F1D011C9238013C
:101C90000FB6C852DD4F6EAE7FAEC85DD2400FBEEC
:101CA00084E690E04C010FB6CA52DD4F8EAF9FAF75
:101CB000C65DD2400FBE0FB6C253DD4F6EAE7FAED3
:101CC000CE5CD2400FBE0FB6C453DD4FAEAEBFAE3A
:101CD000CC5CD2400FBE0FB6C653DD4F6EAE7FAEAA
:101CE000CA5CD2400FBE0FB6C853DD4F6EAE7FAE9A
:101CF000C85CD2400FBE83E091E05C010FB6CC52CD
:101D0000DD4F8EAF9FAFC45DD2400FBE0FB6CE5237
:101D1000DD4FEEAEFFAEC25DD2400FBE8E010D5163
:101D20001F4F0FB6C053DD4F0EAF1FAFC05DD24087
:101D30000FBE8AE190E00FB6CA53DD4F8EAF9FAF62
:101D4000C65CD2400FBE81E594E00FB6CC53DD4FA8
:101D50008EAF9FAFC45CD2400FBECE0187509D4F67
:101D6000BE016E5F7C4FAE014F505F4F0E9453002B
:101D70000FB6C554DD4F8EADCB5BD2400FBE803069
:101D800009F01FC10FB6C852DD4F6EAE7FAEC85D01
:101D9000D2400FBE0FB6CA52DD4F8EAE9FAEC65DAB
:101DA000D2400FBE0FB6C253DD4F6EAE7FAECE5CDB
:101DB000D2400FBE88E190E00FB6C453DD4F8EAF26
:101DC0009FAFCC5CD2400FBE0FB6C653DD4F6EAE98
:101DD0007FAECA5CD2400FBE0FB6C853DD4F6EAEA9
:101DE0007FAEC85CD2400FBE0FB6CC52DD4FAEAE58
:101DF000BFAEC45DD2400FBE0FB6CE52DD4FEEAEC9
:101E0000FFAEC25DD2400FBE0FB6C053DD4F0EAF66
:101E10001FAFC05DD2400FBE85E290E00FB6CA533F
:101E2000DD4F8EAF9FAFC65CD2400FBE8BE694E015
:101E30000FB6CC53DD4F8EAF9FAFC45CD2400FBE08
:101E4000CE0187509D4FBE016E5F7C4FAE014F505B
:101E50005F4F0E9453000FB6C554DD4F8EADCB5B74
:101E6000D2400FBE803009F0ACC0A601CA01019675
:101E70003C01CA018B5F9D4FBC01CA018C5F9D4F25
:101E80004C01CA018D5F9D4F2C014E5F5D4FEDEF00
:101E9000F4E08FE095E020813091C0003072303066
:101EA000D9F32093C6003196E817F907A1F7DA01B4
:101EB000FC90D2011C911F1508F47BC0D401DC906A
:101EC000DB013C913D1508F474C0A981BA818C9165
:101ED00092E09827A92FBB27FD01ED5EFA4FB08055
:101EE000A15FBA4FAC9082304CF4803049F017605B
:101EF0001B15DA0108F01B2D339508C08230B9F7A5
:101F000013951B15DA0108F01B2D37609FEF9C938A
:101F1000D2011C92D4019C93DB011C923A1508F06B
:101F20003A2D82300CF022C0803009F421C0D1015A
:101F30006C910FB6CD54DF4FBEACC35BD0400FBE2B
:101F40008B2D4D2D2F2D032FE12EC32E0E94AB087C
:101F5000873009F02FC0D3016C912A2D33278B2DA8
:101F60004B815C810D2DEF2CA12E1FC08230F9F624
:101F7000D1016C910FB6CD54DF4FCEACC35BD040D6
:101F80000FBE8C2D4F2D2D2D012FE32EA32E0E9441
:101F9000AB08873079F4D3016C912B2D33278C2D2E
:101FA0004B815C810F2DED2CC12E0E9408098730DA
:101FB00009F4FFCFCE018E5F9C4F0E9400100E945B
:101FC000C310CE01885EF8CF80E091E06BE270E054
:101FD0000E94F40F0E94C3100E9462100E94C3105E
:101FE0000E94EC0F0E94C3100E94EC0F0E94C310CD
:101FF0000E94FC0F0E94C3100E94EC0F0E94C310AD
:102000000E94EC0F0E94C3108F929F92AF92BF92DA
:10201000CF92DF92EF92FF920F931F939B01FC01EF
:1020200060857185AAE17A02102D11246A9FA12D85
:102030001124A10FBA2FAA27002D11270A2B1B2B21
:10204000E680F7800E0D1F1DF7016F01C016D10647
:1020500091F0F601A080B18082809380A1E0A41667
:10206000B5068206930609F0A12DA170F6017A96B5
:10207000A03059F317C0FC01808191818617970722
:10208000E8F42AE19202302D1124829F812D11243F
:10209000830F982F8827202D3327282B392BE20EEA
:1020A000F31E6701C6011F910F91FF90EF90DF9023
:1020B000CF90BF90AF909F908F9008950E94F00FA7
:1020C0000E94C310FFCFDB018F939F930E94A91042
:1020D000BF91AF91A29F800D911DA39F900DB29FC4
:1020E000900D11240895AA1BBB1B51E107C0AA1F24
:1020F000BB1FA617B70710F0A61BB70B881F991FA9
:102100005A95A9F780959095BC01CD010895A1E25B
:102110001A2EAA1BBB1BFD010DC0AA1FBB1FEE1F61
:10212000FF1FA217B307E407F50720F0A21BB30BAC
:10213000E40BF50B661F771F881F991F1A9469F728
:1021400060957095809590959B01AC01BD01CF0184
:1021500008950E94B410A59F900DB49F900DA49F68
:10216000800D911D11240895A29FB001B39FC0015D
:10217000A39F700D811D1124911DB29F700D811DB3
:102180001124911D089581E090E0F8940C94E510DD
:10219000FB01DC0104C08D910190801921F44150B4
:1021A0005040C8F7881B990B0895FB01DC0102C061
:1021B00001900D9241505040D8F70895DC0101C0C4
:0E21C0006D9341505040E0F70895F894FFCF22
:1021CE0063616C6C656420604F7074696F6E3A3A2F
:1021DE00756E77726170282960206F6E20612060A5
:1021EE004E6F6E65602076616C7565200000000094
:1021FE0000000000000000010000000100000006C9
:10220E0000000000004300000000000000F9FFFF86
:10221E00FF06000000080000000700000001004A51
:10222E0000000000000000F9FFFFFF030000000A9D
:10223E000000000400000031004B00000000000010
:10224E0000F9FFFFFF050000000800000006000077
:10225E00004F004E00000000000000F9FFFFFF06D7
:10226E000000000800000007000000770057000083
:10227E000000000000F9FFFFFF0900000008000049
:10228E00000A000000A7006100000000000000FB33
:10229E00FFFFFF050000000600000006000000EF33
:1022AE00006300000000000000FBFFFFFF040000C1
:1022BE000006000000050000000D01650000000092
:1022CE00000000FBFFFFFF050000000600000006F7
:1022DE0000000025016800000000000000F9FFFF6B
:1022EE00FF05000000080000000600000043016921
:1022FE0000000000000000F9FFFFFF0100000008D1
:10230E00000000020000006B016C000000000000E5
:10231E0000F9FFFFFF0100000008000000020000AE
:10232E000073016D00000000000000FBFFFFFF07BF
:10233E0000000006000000080000007B016E000097
:10234E000000000000FBFFFFFF050000000600007C
:10235E000006000000A5016F00000000000000FB59
:10236E00FFFFFF050000000600000006000000C38E
:10237E00017000000000000000FBFFFFFF050000E1
:10238E00000800000006000000E1017200000000DD
:10239E00000000FBFFFFFF0300000006000000042A
:1023AE0000000009027300000000000000FBFFFFA8
:1023BE00FF0500000006000000060000001B02746E
:1023CE0000000000000000F9FFFFFF0300000008FE
:1023DE000000000400000039027700000000000039
:1023EE0000FBFFFFFF0700000006000000080000D2
:1023FE000051024630000002000000F6FFFFFF070A
:10240E000000000C0000000C0000007B02533000A6
:10241E000002000000F8FFFFFF08000000090000A6
:10242E00000C000000CF025D30000001000000F83B
:10243E00FFFFFF090000000A0000000C000000175B
:10244E00037830000000000000FAFFFFFF0B0000D1
:10245E0000060000000C000000710388300000012F
:10246E00000000F7FFFFFF090000000B0000000C4A
:10247E00000000B3032D4E000000000000F7FFFF28
:10248E00FF0B0000000B0000000C0000001604FD06
:10249E0056000000000000F7FFFFFF0B0000000BCE
:1024AE000000000C0000008F04E565000000000035
:1024BE0000F7FFFFFF0B0000000B0000000C0000F8
:1024CE000008052C67000000000000F7FFFFFF0B5F
:1024DE000000000B0000000C0000008105226B00C4
:1024EE000000000000F7FFFFFF0B0000000B0000D4
:1024FE00000C000000FA05CE8F000000000000F76F
:10250E00FFFFFF0B0000000B0000000C000000732B
:10251E0006E4B8ADE59BBDE6ACA2E8BF8E436869A4
:10252E006E612077656C636F6D6573E697A5E69CAB
:10253E00ACE381B8E38288E38186E38193E3819DF6
:10254E0057656C636F6D6520746F204A6170616EA4
:10255E0048656C6C6F2066726F6D20417264756990
:10256E006E6F212073696D756C6174652073736471
:10257E0031333036206F6C65642031323858333247
:10258E0020646973706C61792C20676C7970687344
:10259E0020646174612073746F726520696E2065AA
:1025AE006570726F6D3A0D0A656570726F6D20639E
:1025BE00617061636974792069733A0D0A6472619E
:1025CE0077207465787420636C6F73653A0D0A20FA
:1025DE00802080802080205061676520746F6F207E
:0425EE006869676849
:00000001FF
